:020000040800F2
:10000000005000205D1B0008AD190008B31900085E
:10001000B9190008BF190008C51900080000000040
:10002000000000000000000000000000CB190008E4
:10003000D719000800000000E3190008EF190008B4
:10004000A51B0008A51B0008A51B0008A51B000890
:10005000A51B0008A51B0008A51B0008A51B000880
:10006000A51B0008A51B0008A51B0008A51B000870
:10007000A51B0008A51B0008A51B0008A51B000860
:10008000A51B0008A51B0008A51B0008A51B000850
:10009000A51B0008A51B0008A51B0008A51B000840
:1000A000A51B0008A51B0008A51B0008A51B000830
:1000B000FD190008A51B0008A51B0008A51B0008CA
:1000C000A51B0008A51B0008A51B0008A51B000810
:1000D000A51B0008A51B0008A51B0008A51B000800
:1000E000A51B0008A51B0008A51B000800000000B8
:1000F0000000000000000000000000000000000000
:0C01000000000000000000005FF808F1A3
:10010C0010B5054C237833B9044B13B10448AFF345
:10011C0000800123237010BDE000002000000000CF
:10012C00E44A000808B5034B1BB103490348AFF37D
:10013C00008008BD00000000E4000020E44A000834
:10014C0080B483B000AF7860094A7B6852F82330E2
:10015C00012B06D1064A7B68002142F823100123AB
:10016C0000E0002318460C37BD4680BC704700BF2A
:10017C00FC00002080B483B000AF7860044A7B6838
:10018C00012142F8231000BF0C37BD4680BC7047DC
:10019C00FC00002080B582B000AF7860414A7B68DB
:1001AC001B01134404331A683E497B681B010B4442
:1001BC001A603C4A7B681B01134408331A6839499E
:1001CC007B681B010B4404331A60374A7B6852F876
:1001DC0023301846354A7B6852F823309BB21946B7
:1001EC0001F0D0FF034619462E4A7B681B011344CD
:1001FC00083319602B4A7B681B0113441A68294980
:10020C007B681B010B4404331B689A4246D1254A78
:10021C007B681B01134404331A6822497B681B0159
:10022C000B4408331B689A4238D11E4A7B681B0169
:10023C0013440C331A681B497B681B010B440833AD
:10024C001B689A421AD0174A7B681B011344083367
:10025C001A6814497B681B010B440C331A60114A51
:10026C007B681B01134408331B68002B16D178687C
:10027C00FFF780FF0E4BC8221A600FE00C4B1B6877
:10028C00013B0B4A13600A4B1B68002B06D1054A35
:10029C007B681B0113440C3301221A6000BF083722
:1002AC00BD4680BD0000002044000020540000200A
:1002BC004000002080B586B000AFA04B1B68013B0E
:1002CC00042B00F2A88201A252F823F0ED020008E0
:1002DC005D030008D704000843060008290700083E
:1002EC00964B02221A60964B1A68964B1B681A445E
:1002FC00954B1B681344642202FB03F37B600921BA
:10030C00786801F027FA8E4B1B688E4A12681146EA
:10031C00184600F071FC8B4B1B68642202FB03F344
:10032C000021184601F016FA0121642001F012FA9E
:10033C0008210A2001F00EFA844B64221A60002175
:10034C00834802F007FC824B1B6800225A6380E250
:10035C0000220021012000F073FC0022012100206A
:10036C0000F0B4FC7B4B5B6A012B0DD17A4B002265
:10037C001A607A4B00221A60744B64221A600022B5
:10038C000021002000F0EEFC734B1B68012B04D104
:10039C0000220121002000F0E5FC714B1B68002BB2
:1003AC000FD06A4B1A686A4B1B685A63644B1B6804
:1003BC004F2292FBF3F2654B1B681344634A1360A4
:1003CC0003E0634B1B6800225A63624B1B68012BD2
:1003DC0013D15D4B1B68642202FB03F3002118460A
:1003EC0001F0B8F9554B03221A60574B1B68564A5B
:1003FC0012681146184600F0FFFB564B5B68012B48
:10040C0005D100F0D7FB0121642001F0A3F9514B79
:10041C001B6A002B0DD0514B1B68002B05D0504B89
:10042C001B6883F001034E4A136008210A2001F077
:10043C0091F90120FFF784FE0346012B1ED1002207
:10044C000021002000F0FCFB00220021002000F025
:10045C003DFC00220021002000F084FC03216420DC
:10046C0001F078F9354B0D221A603E4803F0C4FCBC
:10047C00334B1B6819463C4803F058FC0020FFF72F
:10048C005FFE0346012B40F0C881002201210020B1
:10049C0000F068FC304B01221A60304B01221A60CC
:1004AC00274B1A68274B1B681A44274B1B681344AD
:1004BC00C82202FB03F3BB600921B86801F04AF9BA
:1004CC0008210A2001F046F9A7E1002200210120B1
:1004DC0000F0B6FB01220021002000F0F7FB1D4BC1
:1004EC005B6A012B0DD11C4B00221A601B4B0022A6
:1004FC001A60164B64221A6000220021002000F0C2
:10050C0031FC154B1B68012B04D10022012100206A
:10051C0000F028FC124B1B68002B27D00B4B1A68E1
:10052C000B4B1B685A63064B1B684F2292FBF3F272
:10053C00064B1B681344054A13601BE02001002086
:10054C006C0000207000002074000020640000206B
:10055C0078010020000300202C0100200C01002059
:10056C0010010020FC4A0008244B0008AE4B1B680D
:10057C0000225A63AD4B1B68012B19D1AC4B1B6885
:10058C00642202FB03F30021184601F0E3F8A94BA7
:10059C0004221A60A84B00221A60A84B64221A602D
:1005AC00A34B1B68A64A12681146184600F024FBA0
:1005BC009E4B5B68012B05D100F0FCFA01216420F5
:1005CC0001F0C8F8994B1B6A002B0DD09A4B1B6895
:1005DC00002B05D09B4B1B6883F00103994A1360D9
:1005EC0008210A2001F0B6F80020FFF7A9FD034608
:1005FC00012B40F0148100220121002000F0B2FBFD
:10060C00914B01221A608C4B01221A608C4B1A6898
:10061C00874B1B681A448D4B1B681344C82202FB82
:10062C0003F3FB600921F86801F094F808210A2013
:10063C0001F090F8F3E000220121002000F000FB13
:10064C0000220021012000F041FB784B5B6A012B5A
:10065C000ED17D4B00221A60774B00221A600022CB
:10066C000021002000F07EFB6F4B1B6800225A63B8
:10067C00754B1B68012B08D100220021012000F0D2
:10068C0071FB694B1B6800225A63684B1B68012B7A
:10069C0013D16E4B1B68642202FB03F30021184636
:1006AC0001F058F8634B05221A60684B1B68674AC7
:1006BC0012681146184600F09FFA5C4B5B68012BE0
:1006CC0005D100F077FA0121642001F043F80020F5
:1006DC00FFF736FD0346012B40F0A38000220021DA
:1006EC00012000F03FFB584B01221A60524B0122B3
:1006FC001A60534B1A684E4B1B681A44534B1B68B9
:10070C001344C82202FB03F33B610921386901F051
:10071C0021F808210A2001F01DF882E001220021B5
:10072C00002000F08DFA00220021012000F0CEFA0A
:10073C003E4B5B6A012B0ED1434B00221A603E4BA1
:10074C0000221A6000220021002000F00BFB364B27
:10075C001B6800225A633C4B1B68012B0CD10022F6
:10076C000021012000F0FEFA08210A2000F0F2FF1F
:10077C002D4B1B6800225A632C4B1B68012B1AD182
:10078C002B4B1B68642202FB03F30021184600F07C
:10079C00E1FF284B02221A60294B1B68244A12687D
:1007AC001146184600F028FA274B1B68002B02D084
:1007BC00214B01221A601D4B5B68012B05D100F007
:1007CC00F9F90121642000F0C5FF0020FFF7B8FC07
:1007DC000346012B3CD100220021012000F0C2FA7B
:1007EC00194B01221A60144B01221A60144B1A681F
:1007FC000F4B1B681A44154B1B681344C82202FB91
:10080C0003F37B610921786900F0A4FF08210A2019
:10081C0000F0A0FF1CE000BF1BE000BF19E000BF10
:10082C0017E000BF15E000BF780100200003002096
:10083C0070000020200100200C010020640000202A
:10084C006C000020100100202C01002074000020FE
:10085C0000BF00BF1837BD4680BD00BF80B400AFDD
:10086C00074B1B68074A1360074B1B68074A13604A
:10087C00074B1B68074A136000BFBD4680BC70471E
:10088C006C000020140100207400002018010020CE
:10089C00700000201C01002080B500AFAD4B1B6820
:1008AC000F2B00F0EE800F2B00F368810D2B02D084
:1008BC000E2B73D062E1A84BDB68012B22D1A74B26
:1008CC001B68002B0AD000220021012000F0B8F98F
:1008DC0000220021012000F0F9F909E0002200219A
:1008EC00002000F0ADF900220021002000F0EEF90C
:1008FC009A4B1B68C3F10103984A136003216420CF
:10090C0000F028FF0120FFF71BFC0346012B16D13A
:10091C0000220021002000F093F900220021002089
:10092C0000F0D4F90321642000F014FF894B0E224F
:10093C001A608B4B1B6819468A4803F0F7F90220A2
:10094C00FFF7FEFB0346012B12D1874B1B680133CB
:10095C00854A1360844B1B68622B03DD834B1B6839
:10096C00814A1360804B1B6819467E4803F0DEF900
:10097C000320FFF7E5FB0346012B40F002817A4B85
:10098C001B687A4A1360794B1A68794B1B68D31A27
:10099C00784A13606F4B01221A60F2E06E4BDB68F1
:1009AC00012B22D16D4B1B68002B0AD00122002198
:1009BC00002000F045F901220021002000F086F90A
:1009CC0009E000220021002000F03AF90022002169
:1009DC00002000F07BF9614B1B68C3F101035F4AF7
:1009EC0013600321642000F0B5FE0120FFF7A8FB83
:1009FC000346012B16D100220021002000F020F923
:100A0C0000220021002000F061F90321642000F095
:100A1C00A1FE504B0F221A60574B1B6819465148C8
:100A2C0003F084F90220FFF78BFB0346012B12D154
:100A3C004B4B1B6801334A4A1360494B1B68622BB2
:100A4C0003DD4B4B1B68464A1360454B1B6819462C
:100A5C00444803F06BF90320FFF772FB0346012BAC
:100A6C0040F091803E4B1B68414A1360414B1A6821
:100A7C003F4B1B6813443D4A1360364B01221A60EE
:100A8C0081E0354BDB68012B22D1344B1B68002BEA
:100A9C000AD000220121002000F0D2F8002201210E
:100AAC00002000F013F909E000220021002000F0E2
:100ABC00C7F800220021002000F008F9274B1B6822
:100ACC00C3F10103254A13600321642000F042FEA8
:100ADC000120FFF735FB0346012B0CD1002200212E
:100AEC00002000F0ADF800220021002000F0EEF80C
:100AFC00184B01221A600220FFF722FB0346012B40
:100B0C0012D11D4B1B6801331B4A13601A4B1B6817
:100B1C00622B03DD174B1B68174A1360164B1B68BF
:100B2C001946104803F002F90320FFF709FB0346AE
:100B3C00012B2AD1104B1B680E4A13600D4B1A68FF
:100B4C000B4B1B681344094A1360024B01221A60B9
:100B5C001BE000BF200100200003002068000020E3
:100B6C0018010020384B0008140100206C000020F4
:100B7C0074000020700000201C010020FFF76EFEA6
:100B8C0004E000BF02E000BF00E000BF00BF80BD7A
:100B9C0080B582B000AF7860391D4FF0FF33012271
:100BAC00034802F093FE7B6818460837BD4680BDAB
:100BBC00C001002080B500AF0B4B1B68013B0A4AFB
:100BCC0013600A4B1B68013B084A1360064B1B68F9
:100BDC001946074803F0AAF8044B1B681946054848
:100BEC0003F0A4F800BF80BD2401002028010020E0
:100BFC004C4B0008704B000880B582B000AF786099
:100C0C0039600B4A7B6813600A4A3B681360084BD7
:100C1C001B681946084803F089F8064B1B681946EF
:100C2C00064803F083F800BF0837BD4680BD00BFFF
:100C3C0024010020280100204C4B0008704B0008B8
:100C4C0080B584B000AFF860B9607A60FB68012BA6
:100C5C0009D1012220211C4801F0ABFA00221021FD
:100C6C00194801F0A6FABB68012B09D100222021FA
:100C7C00154801F09EFA01221021134801F099FA4F
:100C8C007B68012B09D1012220210F4801F091FA38
:100C9C00012210210C4801F08CFAFB68002B0FD1BB
:100CAC00BB68002B0CD17B68002B09D100222021C2
:100CBC00054801F07EFA00221021034801F079FA70
:100CCC0000BF1037BD4680BD000C014080B584B01C
:100CDC0000AFF860B9607A60FB68012B0AD1012281
:100CEC004FF480611D4801F064FA002208211C4871
:100CFC0001F05FFABB68012B0AD100224FF480612E
:100D0C00164801F056FA01220821154801F051FA53
:100D1C007B68012B0AD101224FF480610F4801F04E
:100D2C0048FA012208210E4801F043FAFB68002B17
:100D3C0010D1BB68002B0DD17B68002B0AD100228F
:100D4C004FF48061054801F034FA00220821044870
:100D5C0001F02FFA00BF1037BD4680BD00080140DE
:100D6C00000C014080B584B000AFF860B9607A60C7
:100D7C00FB68012B0BD101224FF480611F4801F05D
:100D8C0018FA00224FF480711D4801F012FABB686A
:100D9C00012B0BD100224FF48061184801F009FAA5
:100DAC0001224FF48071164801F003FA7B68012B85
:100DBC000BD101224FF48061104801F0FAF90122A5
:100DCC004FF480710E4801F0F4F9FB68002B11D13F
:100DDC00BB68002B0ED17B68002B0BD100224FF48B
:100DEC008061064801F0E5F900224FF48071044857
:100DFC0001F0DFF900BF1037BD4680BD000C01408B
:100E0C000008014080B500AF002000F0BBFC0120C1
:100E1C0000F0B8FC032000F0B5FC082000F0B2FC98
:100E2C00092000F0AFFC0020FFF7B4F90120FFF718
:100E3C00B1F90220FFF7AEF90320FFF7ABF900BFC1
:100E4C0080BD80B582B000AF78607B681B68B3F161
:100E5C00804F01D100F0CCF900BF0837BD4680BDF2
:100E6C0080B500AF00F09AFE00F020F800F04CF9CD
:100E7C0000F05EF800F0A8F800F01CF90122002147
:100E8C00074800F0DDF901220021064800F0D8F9EE
:100E9C0001220021044800F0D3F900F01BFCFCE710
:100EAC00110E0008C1020008A508000880B590B01A
:100EBC0000AF07F1180328220021184603F07CF834
:100ECC003B1D00221A605A609A60DA601A61022394
:100EDC00BB610123BB621023FB6202237B630023F3
:100EEC00BB634FF46013FB6307F11803184601F062
:100EFC0079F90346002B01D000F074F90F237B60C5
:100F0C000223BB600023FB604FF480633B61002332
:100F1C007B613B1D0221184601F0E6FB0346002BCA
:100F2C0001D000F05FF900BF4037BD4680BD000026
:100F3C0080B586B000AF07F1080300221A605A6032
:100F4C009A60DA603B4600221A605A601D4B4FF0E3
:100F5C0080421A601B4B42F20F725A60194B0022EE
:100F6C009A60184B3F22DA60164B00221A61154B1F
:100F7C0000229A61134801F045FD0346002B01D075
:100F8C0000F030F94FF48053BB6007F108031946A9
:100F9C000C4802F04BF80346002B01D000F022F96C
:100FAC0000233B6000237B603B461946054802F05A
:100FBC00CDFB0346002B01D000F014F900BF18370D
:100FCC00BD4680BD3001002080B58EB000AF07F16A
:100FDC00280300221A605A609A60DA6007F1200335
:100FEC0000221A605A603B1D00221A605A609A60F7
:100FFC00DA601A615A619A612C4B2D4A1A602B4B9C
:10100C0040F207725A60294B00229A60274B6422E7
:10101C00DA60264B00221A61244B00229A61234885
:10102C0001F0F0FC0346002B01D000F0DBF84FF48C
:10103C008053BB6207F1280319461C4801F0F6FFE8
:10104C000346002B01D000F0CDF8184801F029FD23
:10105C000346002B01D000F0C5F800233B620023AF
:10106C007B6207F120031946104802F06FFB034620
:10107C00002B01D000F0B6F860237B600023BB602E
:10108C000023FB6000237B613B1D002219460748AF
:10109C0001F00AFF0346002B01D000F0A3F803482F
:1010AC0000F002FC00BF3837BD4680BD780100203F
:1010BC000004004080B500AF114B124A1A60104B6F
:1010CC004FF4E1325A600E4B00229A600C4B002216
:1010DC00DA600B4B00221A61094B0C225A61084B47
:1010EC0000229A61064B0022DA61054802F09EFB51
:1010FC000346002B01D000F075F800BF80BD00BF87
:10110C00C00100200044004080B586B000AF07F15C
:10111C00080300221A605A609A60DA602E4B9B69B1
:10112C002D4A43F0040393612B4B9B6903F004039A
:10113C007B607B68284B9B69274A43F008039361CB
:10114C00254B9B6903F008033B603B6800224FF47E
:10115C008761224801F02DF800224FF4A06120484D
:10116C0001F027F81323BB600023FB6001233B61D4
:10117C0007F1080319461A4800F080FE0123BB60F2
:10118C000023FB6001233B6107F108031946134858
:10119C0000F074FE4FF48763BB600123FB600023F7
:1011AC003B6102237B6107F1080319460B4800F0F1
:1011BC0065FE4FF4A063BB600123FB6000233B6121
:1011CC0002237B6107F108031946054800F056FE1F
:1011DC0000BF1837BD4680BD00100240000C014016
:1011EC000008014080B400AF72B600BFFEE70000FB
:1011FC0080B400AF104B1B6801330F4A13600F4BC8
:10120C001B68002B13D00D4B1B7B002B0FD10B4BF2
:10121C005B68002B04D0094B5B68013B074A5360A9
:10122C00064B5B68002B02D1044B01221A7300BFE2
:10123C00BD4680BC704700BFD402002008020020CD
:10124C0090B589B000AFF860B9607A600023FB7785
:10125C000023BB6100233B610023FB7733E1FA7F62
:10126C00A14913469B0013449B000B4404331B6899
:10127C00BA691344BB61BA69BB689A4240F2C18037
:10128C00FA7F994913469B0013449B000B4404338B
:10129C001A68BB69D31ABA6813443B61FA7FB969FF
:1012AC00BB68C91A904813469B0013449B00034427
:1012BC00043319600923FB754CE0FB7D591EFA7D44
:1012CC0089480B469B000B449B00034419688648D5
:1012DC0013469B0013449B0003441960FB7D591E6D
:1012EC00FA7D81480B469B000B449B00034408335A
:1012FC0019687D4813469B0013449B000344083334
:10130C001960FB7D591EFA7D77480B469B000B44F8
:10131C009B00034404331968734813469B00134421
:10132C009B00034404331960FB7D591EFA7D6E4803
:10133C000B469B000B449B000344103319686A480E
:10134C0013469B0013449B00034410331960FB7D30
:10135C00013BFB75FA7DFB7F9A42AED8FA7F62495E
:10136C0013469B0013449B000B44FA681A60FA7FE7
:10137C005D4913469B0013449B000B4404333A69AC
:10138C001A60FA7F584913469B0013449B000B4488
:10139C0008337A681A60FA7F534913469B0013444A
:1013AC009B000B4404331B68002B0AD1FA7F4E4977
:1013BC0013469B0013449B000B440C3301221A7000
:1013CC0009E0FA7F484913469B0013449B000B44E9
:1013DC000C3300221A70FC7F00F0A4F9024642493B
:1013EC0023469B0023449B000B4410331A60FA7F66
:1013FC003D4913469B0013449B000B4410331B6860
:10140C006EE0FA7F384913469B0013449B000B4453
:10141C001B68002B54D1FA7F334913469B001344AD
:10142C009B000B44FA681A60FA7FB968BB69C91A49
:10143C002D4813469B0013449B000344043319604E
:10144C00FA7F294913469B0013449B000B44083335
:10145C007A681A60FA7F244913469B0013449B0058
:10146C000B4404331B68002B0AD1FA7F1E49134628
:10147C009B0013449B000B440C3301221A7009E0AF
:10148C00FA7F194913469B0013449B000B440C3301
:10149C0000221A70FC7F00F045F9024612492346DF
:1014AC009B0023449B000B4410331A60FA7F0E49B7
:1014BC0013469B0013449B000B4410331B680FE036
:1014CC00FB7F0133FB77FB7F092B7FF6C8AEFA7FDE
:1014DC00054913469B0013449B000B4410331B68B7
:1014EC0018462437BD4690BD0802002080B485B054
:1014FC0000AF786000237B737B68002B00F0E280E8
:10150C000023FB73DAE0FA7B714913469B0013440A
:10151C009B000B4410331B687A689A4240F0CB80D6
:10152C0001237B73FB7B002B2BD0FB7B082B28D858
:10153C00FB7B5A1C664913469B0013449B000B44CF
:10154C001B68002B1DD0FB7B5A1C614913469B006A
:10155C0013449B000B4404331968FA7B5C48134614
:10156C009B0013449B00034404331B68FA7B013239
:10157C001944574813469B0013449B0003440433FF
:10158C001960FB7BBB7360E0BB7B591CBA7B50487A
:10159C000B469B000B449B00034419684C481346B4
:1015AC009B0013449B0003441960BB7B591CBA7B02
:1015BC0047480B469B000B449B00034408331968B7
:1015CC00434813469B0013449B00034408331960A3
:1015DC00BB7B591CBA7B3E480B469B000B449B00C3
:1015EC000344043319683A4813469B0013449B0088
:1015FC00034404331960BB7B591CBA7B34480B463B
:10160C009B000B449B0003440C3318783049134661
:10161C009B0013449B000B440C3302461A70BB7B9B
:10162C00591CBA7B2A480B469B000B449B00034475
:10163C0010331968264813469B0013449B0003443F
:10164C0010331960BB7B0133BB73BB7B082B9BD95D
:10165C00BA7B1F4913469B0013449B000B4400228A
:10166C001A60BA7B1A4913469B0013449B000B4427
:10167C00083300221A60BA7B154913469B001344A9
:10168C009B000B44043300221A60BA7B10491346AA
:10169C009B0013449B000B440C3300221A70BA7B42
:1016AC000B4913469B0013449B000B441033002240
:1016BC001A607B7B07E0FB7B0133FB73FB7B092B05
:1016CC007FF621AF7B7B18461437BD4680BC704734
:1016DC0008020020B0B586B000AF114B1B7B002B6D
:1016EC0019D00F4B1B6898470D4B00221A730C4BEB
:1016FC003C1D1D460FCD0FC42B6823607B6918461B
:10170C00FFF7F4FEFB68002B05D07B68F968FA68DC
:10171C001846FFF795FD00BF1837BD46B0BD00BF9A
:10172C000802002080B400AF094B1B680133084A43
:10173C001360074B1B68002B04D1054B1B6801334E
:10174C00034A1360024B1B681846BD4680BC7047A9
:10175C00D002002080B483B000AF786039600749B4
:10176C003B687A6841F82320054A3B68002142F81F
:10177C00231000BF0C37BD4680BC7047D802002038
:10178C000003002080B483B000AF78600F4A7B6800
:10179C0052F82330002B13DD0C4A7B6852F82330AF
:1017AC005A1E0A497B6841F82320084A7B6852F884
:1017BC002330002B04DC064A7B68012142F82310FD
:1017CC0000BF0C37BD4680BC704700BFD80200205C
:1017DC000003002080B485B000AF154B9B69144A00
:1017EC0043F001039361124B9B6903F00103BB604F
:1017FC00BB680F4BDB690E4A43F08053D3610C4B33
:10180C00DB6903F080537B607B680A4B5B68FB6091
:10181C00FB6823F0E063FB60FB6843F08063FB60D4
:10182C00044AFB68536000BF1437BD4680BC704748
:10183C00001002400000014080B584B000AF786019
:10184C007B681B68B3F1804F14D1154BDB69144ACC
:10185C0043F00103D361124BDB6903F00103FB601E
:10186C00FB68002200211C2000F0D1FA1C2000F0A3
:10187C00EAFA10E07B681B680A4A93420BD1084BCA
:10188C00DB69074A43F00203D361054BDB6903F0C4
:10189C000203BB60BB6800BF1037BD4680BD00BFF4
:1018AC00001002400004004080B588B000AF7860A2
:1018BC0007F1100300221A605A609A60DA607B68A4
:1018CC001B680F4A934217D10E4B9B690D4A43F08C
:1018DC00040393610B4B9B6903F00403FB60FB68EF
:1018EC0040233B6102237B610223FB6107F1100360
:1018FC001946054800F0C2FA00BF2037BD4680BD2E
:10190C0000040040001002400008014080B588B07F
:10191C0000AF786007F1100300221A605A609A60D9
:10192C00DA607B681B681B4A93422FD11A4BDB6928
:10193C00194A43F40033D361174BDB6903F40033CA
:10194C00FB60FB68144B9B69134A43F004039361DF
:10195C00114B9B6903F00403BB60BB6804233B6120
:10196C0002237B610323FB6107F1100319460B482B
:10197C0000F084FA08233B6100237B610023BB61E8
:10198C0007F110031946054800F078FA00BF20371C
:10199C00BD4680BD004400400010024000080140DC
:1019AC0080B400AFFEE780B400AFFEE780B400AFB8
:1019BC00FEE780B400AFFEE780B400AFFEE780B472
:1019CC0000AF00BFBD4680BC704780B400AF00BF05
:1019DC00BD4680BC704780B400AF00BFBD4680BC24
:1019EC00704780B500AF00F01FF900BF80BD00004C
:1019FC0080B500AF024801F04FF900BF80BD00BFB9
:101A0C003001002080B586B000AFF860B9607A6014
:101A1C0000237B610AE0AFF300800146BB685A1CCF
:101A2C00BA60CAB21A707B6901337B617A697B68D0
:101A3C009A42F0DB7B6818461837BD4680BD80B5EE
:101A4C0086B000AFF860B9607A6000237B6109E072
:101A5C00BB685A1CBA601B781846FFF799F87B696B
:101A6C0001337B617A697B689A42F1DB7B681846AB
:101A7C001837BD4680BD80B483B000AF78604FF09E
:101A8C00FF3318460C37BD4680BC704780B483B01A
:101A9C0000AF786039603B684FF400525A60002305
:101AAC0018460C37BD4680BC704780B483B000AF7D
:101ABC007860012318460C37BD4680BC704780B453
:101ACC0085B000AFF860B9607A600023184614370F
:101ADC00BD4680BC7047000080B586B000AF786012
:101AEC00144A154BD31A7B617B693B61134B1B6802
:101AFC00002B02D1114B124A1A60104B1A687B68EA
:101B0C0013443A699A4207D202F0A4FA03460C2213
:101B1C001A604FF0FF3309E0084B1B68FB60074B62
:101B2C001A687B681344054A1360FB68184618371B
:101B3C00BD4680BD0050002000040000280300209A
:101B4C008004002080B400AF00BFBD4680BC70474D
:101B5C00FFF7F8FF0B480C490C4A002302E0D4585D
:101B6C00C4500433C4188C42F9D3094A094C0023DD
:101B7C0001E013600432A242FBD302F071FAFFF7CA
:101B8C006FF9704700000020E0000020F84B0008BF
:101B9C00E00000207C040020FEE7000080B500AFD0
:101BAC00084B1B68074A43F010031360032000F036
:101BBC0023F90F2000F008F8FFF70CFE002318465D
:101BCC0080BD00BF0020024080B582B000AF7860BD
:101BDC00124B1A68124B1B7819464FF47A73B3FBED
:101BEC00F1F3B2FBF3F3184600F03BF90346002B7C
:101BFC0001D001230EE07B680F2B0AD800227968F4
:101C0C004FF0FF3000F003F9064A7B6813600023A5
:101C1C0000E0012318460837BD4680BD780000203F
:101C2C00800000207C00002080B400AF054B1B78A6
:101C3C001A46054B1B681344034A136000BFBD468C
:101C4C0080BC7047800000202C03002080B400AFC3
:101C5C00024B1B681846BD4680BC70472C03002005
:101C6C0080B485B000AF78607B6803F00703FB603D
:101C7C000C4BDB68BB60BA684FF6FF031340BB60CC
:101C8C00FB681A02BB68134343F0BF6343F4003391
:101C9C00BB60044ABB68D36000BF1437BD4680BC30
:101CAC00704700BF00ED00E080B400AF044BDB6870
:101CBC001B0A03F007031846BD4680BC704700BFE3
:101CCC0000ED00E080B483B000AF0346FB7197F9E0
:101CDC000730002B0BDBFB7903F01F02064997F949
:101CEC0007305B09012000FA02F241F8232000BF03
:101CFC000C37BD4680BC704700E100E080B483B077
:101D0C0000AF03463960FB7197F90730002B0ADBF3
:101D1C003B68DAB20C4997F907301201D2B20B4486
:101D2C0083F800230AE03B68DAB20849FB7903F038
:101D3C000F03043B1201D2B20B441A7600BF0C37CE
:101D4C00BD4680BC704700BF00E100E000ED00E044
:101D5C0080B489B000AFF860B9607A60FB6803F0BA
:101D6C000703FB61FB69C3F10703042B28BF0423A2
:101D7C00BB61FB690433062B02D9FB69033B00E012
:101D8C0000237B614FF0FF32BB6902FA03F3DA43A5
:101D9C00BB681A407B699A404FF0FF317B6901FAAE
:101DAC0003F3D9437B680B40134318462437BD46D5
:101DBC0080BC704780B582B000AF78607B68013B17
:101DCC00B3F1807F01D301230FE00A4A7B68013B0A
:101DDC0053600F214FF0FF30FFF790FF054B0022AF
:101DEC009A60044B07221A60002318460837BD4638
:101DFC0080BD00BF10E000E080B582B000AF78601D
:101E0C007868FFF72DFF00BF0837BD4680BD80B551
:101E1C0086B000AF0346B9607A60FB7300237B6128
:101E2C00FFF742FF78617A68B9687869FFF790FF2D
:101E3C00024697F90F3011461846FFF75FFF00BFB7
:101E4C001837BD4680BD80B582B000AF0346FB712C
:101E5C0097F907301846FFF735FF00BF0837BD4626
:101E6C0080BD80B582B000AF78607868FFF7A2FFC4
:101E7C00034618460837BD4680BD000080B48BB0C1
:101E8C0000AF7860396000237B6200233B6269E11C
:101E9C0001227B6A02FA03F3FB613B681B68FA6957
:101EAC001340BB61BA69FB699A4240F058813B68A8
:101EBC005B689A4A93425ED0984A934275D8984A86
:101ECC00934258D0964A93426FD8964A934252D036
:101EDC00944A934269D8944A93424CD0924A934282
:101EEC0063D8924A934246D0904A93425DD8122BC3
:101EFC002AD8122B59D801A252F823F0831F0008BC
:101F0C005D1F00086F1F0008B11F0008B71F0008F5
:101F1C00B71F0008B71F0008B71F0008B71F00083D
:101F2C00B71F0008B71F0008B71F0008B71F00082D
:101F3C00B71F0008B71F0008B71F0008B71F00081D
:101F4C00651F0008791F0008794A934213D02CE0D2
:101F5C003B68DB683B6229E03B68DB6804333B622F
:101F6C0024E03B68DB6808333B621FE03B68DB68BE
:101F7C000C333B621AE03B689B68002B02D10423B4
:101F8C003B6213E03B689B68012B05D108233B6245
:101F9C007B68FA691A6109E008233B627B68FA697D
:101FAC005A6103E000233B6200E000BFBB69FF2BDA
:101FBC0001D87B6801E07B6804337B61BB69FF2B34
:101FCC0002D87B6A9B0002E07B6A083B9B003B616A
:101FDC007B691A680F213B6901FA03F3DB431A4052
:101FEC00396A3B6901FA03F31A437B691A603B684F
:101FFC005B6803F08053002B00F0B1804D4B9B6964
:10200C004C4A43F0010393614A4B9B6903F0010373
:10201C00BB60BB68484A7B6A9B08023352F823308A
:10202C00FB607B6A03F003039B000F2202FA03F3AD
:10203C00DB43FA681340FB607B68404A934213D041
:10204C007B683F4A93420DD07B683E4A934207D04F
:10205C007B683D4A934201D1032306E0042304E04C
:10206C00022302E0012300E000237A6A02F003025B
:10207C0092009340FA681343FB602F497B6A9B08DC
:10208C000233FA6841F823203B685B6803F4801341
:10209C00002B06D02D4B9A682C49BB6913438B60DF
:1020AC0006E02A4B9A68BB69DB43284913408B60D6
:1020BC003B685B6803F40013002B06D0234BDA68F3
:1020CC002249BB691343CB6006E0204BDA68BB693D
:1020DC00DB431E491340CB603B685B6803F4003361
:1020EC00002B06D0194B5A681849BB6913434B6037
:1020FC0006E0164B5A68BB69DB43144913404B602E
:10210C003B685B6803F48033002B21D00F4B1A68BB
:10211C000E49BB6913430B6021E000BF0000321075
:10212C0000003110000022100000211000001210DD
:10213C000000111000100240000001400008014096
:10214C00000C01400010014000140140000401404B
:10215C000B4B1A68BB69DB43094913400B607B6A64
:10216C0001337B623B681A687B6A22FA03F3002B0B
:10217C007FF48EAE00BF00BF2C37BD4680BC7047CD
:10218C000004014080B485B000AF78600B467B80C2
:10219C007B689A687B881340002B02D00123FB7369
:1021AC0001E00023FB73FB7B18461437BD4680BC53
:1021BC00704780B483B000AF78600B467B801346C9
:1021CC007B707B78002B03D07A887B681A6103E0E4
:1021DC007B881A047B681A6100BF0C37BD4680BC33
:1021EC007047000080B586B000AF78607B68002B2C
:1021FC0001D1012372E27B681B6803F00103002B01
:10220C0000F08780924B5B6803F00C03042B0CD01E
:10221C008F4B5B6803F00C03082B12D18C4B5B6863
:10222C0003F48033B3F5803F0BD1894B1B6803F467
:10223C000033002B6CD07B685B68002B68D10123CA
:10224C004CE27B685B68B3F5803F06D1804B1B6822
:10225C007F4A43F4803313602EE07B685B68002B6D
:10226C000CD17B4B1B687A4A23F480331360784B78
:10227C001B68774A23F4802313601DE07B685B683E
:10228C00B3F5A02F0CD1724B1B68714A43F4802319
:10229C0013606F4B1B686E4A43F4803313600BE082
:1022AC006B4B1B686A4A23F480331360684B1B68C2
:1022BC00674A23F4802313607B685B68002B13D080
:1022CC00FFF7C4FC386108E0FFF7C0FC02463B692D
:1022DC00D31A642B01D9032300E25D4B1B6803F472
:1022EC000033002BF0D014E0FFF7B0FC386108E0AD
:1022FC00FFF7ACFC02463B69D31A642B01D90323CC
:10230C00ECE1534B1B6803F40033002BF0D100E0DD
:10231C0000BF7B681B6803F00203002B63D04C4B9F
:10232C005B6803F00C03002B0BD0494B5B6803F08C
:10233C000C03082B1CD1464B5B6803F48033002B39
:10234C0016D1434B1B6803F00203002B05D07B68AE
:10235C001B69012B01D00123C0E13D4B1B6823F00D
:10236C00F8027B685B69DB00394913430B603AE088
:10237C007B681B69002B20D0364B01221A60FFF7BB
:10238C0065FC386108E0FFF761FC02463B69D31A33
:10239C00022B01D90323A1E12D4B1B6803F002038F
:1023AC00002BF0D02A4B1B6823F0F8027B685B698A
:1023BC00DB00274913430B6015E0264B00221A6003
:1023CC00FFF744FC386108E0FFF740FC02463B692C
:1023DC00D31A022B01D9032380E11D4B1B6803F098
:1023EC000203002BF0D17B681B6803F00803002B61
:1023FC003AD07B689B69002B19D0174B01221A60CD
:10240C00FFF724FC386108E0FFF720FC02463B692B
:10241C00D31A022B01D9032360E10D4B5B6A03F045
:10242C000203002BF0D0012000F0CEFA1CE00A4B86
:10243C0000221A60FFF70AFC38610FE0FFF706FC78
:10244C0002463B69D31A022B08D9032346E100BF8D
:10245C00001002400000424280044242924B5B6AF0
:10246C0003F00203002BE9D17B681B6803F0040323
:10247C00002B00F0A6800023FB758B4BDB6903F06F
:10248C008053002B0DD1884BDB69874A43F0805376
:10249C00D361854BDB6903F08053BB60BB680123C0
:1024AC00FB75824B1B6803F48073002B18D17F4B98
:1024BC001B687E4A43F480731360FFF7C7FB3861D7
:1024CC0008E0FFF7C3FB02463B69D31A642B01D922
:1024DC00032303E1754B1B6803F48073002BF0D0CE
:1024EC007B68DB68012B06D16F4B1B6A6E4A43F08D
:1024FC00010313622DE07B68DB68002B0CD16A4B67
:10250C001B6A694A23F001031362674B1B6A664A14
:10251C0023F0040313621CE07B68DB68052B0CD1F1
:10252C00614B1B6A604A43F0040313625E4B1B6AE7
:10253C005D4A43F0010313620BE05B4B1B6A5A4A82
:10254C0023F001031362584B1B6A574A23F0040310
:10255C0013627B68DB68002B15D0FFF777FB3861C3
:10256C000AE0FFF773FB02463B69D31A41F288324B
:10257C00934201D90323B1E04B4B1B6A03F00203D6
:10258C00002BEED014E0FFF761FB38610AE0FFF797
:10259C005DFB02463B69D31A41F28832934201D962
:1025AC0003239BE0404B1B6A03F00203002BEED18C
:1025BC00FB7D012B05D13C4BDB693B4A23F080535F
:1025CC00D3617B68DB69002B00F08780364B5B683E
:1025DC0003F00C03082B61D07B68DB69022B46D11E
:1025EC00334B00221A60FFF731FB386108E0FFF72C
:1025FC002DFB02463B69D31A022B01D903236DE054
:10260C00294B1B6803F00073002BF0D17B681B6A0D
:10261C00B3F5803F08D1244B5B6823F400327B6810
:10262C009B68214913434B601F4B5B6823F4741266
:10263C007B68196A7B685B6A0B431B4913434B60CD
:10264C001B4B01221A60FFF701FB386108E0FFF712
:10265C00FDFA02463B69D31A022B01D903233DE054
:10266C00114B1B6803F00073002BF0D035E0104BBE
:10267C0000221A60FFF7EAFA386108E0FFF7E6FA81
:10268C0002463B69D31A022B01D9032326E0064BE1
:10269C001B6803F00073002BF0D11EE07B68DB6934
:1026AC00012B07D1012319E00010024000700040FB
:1026BC00600042420B4B5B68FB60FB6803F48032AA
:1026CC007B681B6A9A4206D1FB6803F470127B6824
:1026DC005B6A9A4201D0012300E0002318461837A8
:1026EC00BD4680BD0010024080B584B000AF78605C
:1026FC0039607B68002B01D10123D0E06A4B1B6849
:10270C0003F007033A689A4210D9674B1B6823F011
:10271C00070265493B6813430B60634B1B6803F06E
:10272C0007033A689A4201D00123B8E07B681B6822
:10273C0003F00203002B20D07B681B6803F004031A
:10274C00002B05D0594B5B68584A43F4E063536047
:10275C007B681B6803F00803002B05D0534B5B68A8
:10276C00524A43F460535360504B5B6823F0F002C1
:10277C007B689B684D4913434B607B681B6803F077
:10278C000103002B40D07B685B68012B07D1474BC2
:10279C001B6803F40033002B15D101237FE07B6809
:1027AC005B68022B07D1414B1B6803F00073002BB5
:1027BC0009D1012373E03D4B1B6803F00203002B8E
:1027CC0001D101236BE0394B5B6823F003027B687A
:1027DC005B68364913434B60FFF738FAF8600AE040
:1027EC00FFF734FA0246FB68D31A41F2883293425F
:1027FC0001D9032353E02D4B5B6803F00C027B687B
:10280C005B689B009A42EBD1274B1B6803F00703D4
:10281C003A689A4210D2244B1B6823F007022249D3
:10282C003B6813430B60204B1B6803F007033A68AB
:10283C009A4201D0012332E07B681B6803F0040349
:10284C00002B08D0194B5B6823F4E0627B68DB68D3
:10285C00164913434B607B681B6803F00803002B7D
:10286C0009D0124B5B6823F460527B681B69DB0058
:10287C000E4913434B6000F021F802460B4B5B688A
:10288C001B0903F00F030A49CB5C22FA03F3094A34
:10289C001360094B1B681846FFF796F9002318467E
:1028AC001037BD4680BD00BF002002400010024022
:1028BC00904B0008780000207C00002080B487B08A
:1028CC0000AF0023FB600023BB6000237B6100236F
:1028DC007B6000233B611E4B5B68FB60FB6803F075
:1028EC000C03042B02D0082B03D027E0194B3B61BF
:1028FC0027E0FB689B0C03F00F03174AD35C7B604B
:10290C00FB6803F48033002B10D0114B5B685B0C1D
:10291C0003F00103114AD35CBB607B680D4A03FBD7
:10292C0002F2BB68B2FBF3F37B6104E07B680C4AF8
:10293C0002FB03F37B617B693B6102E0054B3B616E
:10294C0000BF3B6918461C37BD4680BC704700BFB2
:10295C000010024000127A00A84B0008B84B000887
:10296C0000093D0080B400AF024B1B681846BD4601
:10297C0080BC70477800002080B500AFFFF7F2FFF5
:10298C000246054B5B681B0A03F007030349CB5C4B
:10299C0022FA03F3184680BD00100240A04B000839
:1029AC0080B500AFFFF7DEFF0246054B5B68DB0A24
:1029BC0003F007030349CB5C22FA03F3184680BDEE
:1029CC0000100240A04B000880B485B000AF7860C6
:1029DC000A4B1B680A4AA2FB03235B0A7A6802FBB8
:1029EC0003F3FB6000BFFB685A1EFA60002BF9D1A1
:1029FC0000BF00BF1437BD4680BC70477800002074
:102A0C00D34D621080B582B000AF78607B68002B2C
:102A1C0001D1012341E07B6893F83D30DBB2002B00
:102A2C0006D17B68002283F83C207868FEF704FF0F
:102A3C007B68022283F83D207B681A687B6804332C
:102A4C001946104600F0DEFB7B68012283F8462015
:102A5C007B68012283F83E207B68012283F83F20AB
:102A6C007B68012283F840207B68012283F8412097
:102A7C007B68012283F842207B68012283F8432083
:102A8C007B68012283F844207B68012283F845206F
:102A9C007B68012283F83D20002318460837BD4689
:102AAC0080BD80B582B000AF78607B68002B01D10F
:102ABC00012341E07B6893F83D30DBB2002B06D15B
:102ACC007B68002283F83C20786800F039F87B683A
:102ADC00022283F83D207B681A687B680433194610
:102AEC00104600F08FFB7B68012283F846207B6840
:102AFC00012283F83E207B68012283F83F207B680B
:102B0C00012283F840207B68012283F841207B68F6
:102B1C00012283F842207B68012283F843207B68E2
:102B2C00012283F844207B68012283F845207B68CE
:102B3C00012283F83D20002318460837BD4680BD8E
:102B4C0080B483B000AF786000BF0C37BD4680BC4A
:102B5C007047000080B584B000AF786039603B6886
:102B6C00002B09D17B6893F83E30DBB2012B14BFEC
:102B7C0001230023DBB222E03B68042B09D17B68E4
:102B8C0093F83F30DBB2012B14BF01230023DBB2DF
:102B9C0015E03B68082B09D17B6893F84030DBB219
:102BAC00012B14BF01230023DBB208E07B6893F8F0
:102BBC004130DBB2012B14BF01230023DBB2002B0D
:102BCC0001D001235EE03B68002B04D17B6802221C
:102BDC0083F83E2013E03B68042B04D17B6802226F
:102BEC0083F83F200BE03B68082B04D17B68022262
:102BFC0083F8402003E07B68022283F841207B6845
:102C0C001B6801223968184600F07CFD7B681B6844
:102C1C001E4A934207D17B681B685A6C7B681B6801
:102C2C0042F400425A647B681B68184A93420ED0E7
:102C3C007B681B68B3F1804F09D07B681B68144A12
:102C4C00934204D07B681B68124A934211D17B6873
:102C5C001B689B6803F00703FB60FB68062B10D016
:102C6C007B681B681A687B681B6842F001021A605B
:102C7C0007E07B681B681A687B681B6842F00102DE
:102C8C001A60002318461037BD4680BD002C014049
:102C9C00000400400008004080B582B000AF7860AE
:102CAC007B681B681B6903F00203022B22D17B6833
:102CBC001B68DB6803F00203022B1BD17B681B68CB
:102CCC006FF002021A617B6801221A777B681B681D
:102CDC009B6903F00303002B03D0786800F076FAAD
:102CEC0005E0786800F069FA786800F078FA7B689B
:102CFC0000221A777B681B681B6903F00403042B02
:102D0C0022D17B681B68DB6803F00403042B1BD106
:102D1C007B681B686FF004021A617B6802221A77C9
:102D2C007B681B689B6903F44073002B03D07868A5
:102D3C0000F04CFA05E0786800F03FFA786800F093
:102D4C004EFA7B6800221A777B681B681B6903F0BC
:102D5C000803082B22D17B681B68DB6803F008038F
:102D6C00082B1BD17B681B686FF008021A617B680B
:102D7C0004221A777B681B68DB6903F00303002BC2
:102D8C0003D0786800F022FA05E0786800F015FAB4
:102D9C00786800F024FA7B6800221A777B681B683D
:102DAC001B6903F01003102B22D17B681B68DB68B6
:102DBC0003F01003102B1BD17B681B686FF0100203
:102DCC001A617B6808221A777B681B68DB6903F43D
:102DDC004073002B03D0786800F0F8F905E07868B0
:102DEC0000F0EBF9786800F0FAF97B6800221A77AA
:102DFC007B681B681B6903F00103012B0ED17B68F8
:102E0C001B68DB6803F00103012B07D17B681B688F
:102E1C006FF001021A617868FEF713F87B681B6883
:102E2C001B6903F08003802B0ED17B681B68DB6869
:102E3C0003F08003802B07D17B681B686FF0800246
:102E4C001A61786800F0E9FC7B681B681B6903F069
:102E5C004003402B0ED17B681B68DB6803F04003FA
:102E6C00402B07D17B681B686FF040021A617868B1
:102E7C0000F0BEF97B681B681B6903F02003202B54
:102E8C000ED17B681B68DB6803F02003202B07D175
:102E9C007B681B686FF020021A61786800F0B4FC44
:102EAC0000BF0837BD4680BD80B586B000AFF86066
:102EBC00B9607A600023FB75FB6893F83C30012BFA
:102ECC0001D10223AEE0FB68012283F83C207B6831
:102EDC000C2B00F29F8001A252F823F01D2F00084A
:102EEC002130000821300008213000085D2F000837
:102EFC002130000821300008213000089F2F0008E5
:102F0C00213000082130000821300008DF2F000894
:102F1C00FB681B68B968184600F0D6F9FB681B689B
:102F2C009A69FB681B6842F008029A61FB681B688F
:102F3C009A69FB681B6822F004029A61FB681B68A3
:102F4C009969BB681A69FB681B680A439A6164E05B
:102F5C00FB681B68B968184600F01CFAFB681B6814
:102F6C009A69FB681B6842F400629A61FB681B68F3
:102F7C009A69FB681B6822F480629A61FB681B6883
:102F8C009969BB681B691A02FB681B680A439A6142
:102F9C0043E0FB681B68B968184600F065FAFB68EB
:102FAC001B68DA69FB681B6842F00802DA61FB688F
:102FBC001B68DA69FB681B6822F00402DA61FB68A3
:102FCC001B68D969BB681A69FB681B680A43DA611C
:102FDC0023E0FB681B68B968184600F0AFFAFB6881
:102FEC001B68DA69FB681B6842F40062DA61FB68F3
:102FFC001B68DA69FB681B6822F48062DA61FB6883
:10300C001B68D969BB681B691A02FB681B680A43F9
:10301C00DA6102E00123FB7500BFFB68002283F834
:10302C003C20FB7D18461837BD4680BD80B584B06A
:10303C0000AF786039600023FB737B6893F83C30F9
:10304C00012B01D10223B4E07B68012283F83C20E0
:10305C007B68022283F83D207B681B689B68BB6001
:10306C00BB6823F07703BB60BB6823F47F43BB6072
:10307C007B681B68BA689A603B681B68B3F5005F95
:10308C003ED0B3F5005F00F28780B3F5805F00F0AF
:10309C008680B3F5805F7FD8702B1AD0702B7BD8CD
:1030AC00602B50D0602B77D8502B3CD0502B73D842
:1030BC00402B58D0402B6FD8302B64D0302B6BD892
:1030CC00202B60D0202B67D8002B5CD0102B5AD033
:1030DC0062E07B6818683B6899683B685A683B6893
:1030EC00DB6800F0F0FA7B681B689B68BB60BB6810
:1030FC0043F07703BB607B681B68BA689A604FE04B
:10310C007B6818683B6899683B685A683B68DB6861
:10311C0000F0D9FA7B681B689A687B681B6842F4DC
:10312C0080429A603CE07B6818683B6859683B6851
:10313C00DB681A4600F050FA7B681B685021184671
:10314C0000F0A7FA2CE07B6818683B6859683B686C
:10315C00DB681A4600F06EFA7B681B686021184623
:10316C0000F097FA1CE07B6818683B6859683B686C
:10317C00DB681A4600F030FA7B681B684021184661
:10318C0000F087FA0CE07B681A683B681B681946EC
:10319C00104600F07EFA03E00123FB7300E000BF51
:1031AC007B68012283F83D207B68002283F83C2059
:1031BC00FB7B18461037BD4680BD80B483B000AF92
:1031CC00786000BF0C37BD4680BC704780B483B0BC
:1031DC0000AF786000BF0C37BD4680BC704780B430
:1031EC0083B000AF786000BF0C37BD4680BC704721
:1031FC0080B483B000AF786000BF0C37BD4680BC94
:10320C007047000080B485B000AF786039607B688F
:10321C001B68FB607B68294A93420BD07B68B3F137
:10322C00804F07D07B68264A934203D07B68254A9F
:10323C00934208D1FB6823F07003FB603B685B682A
:10324C00FA681343FB607B681C4A93420BD07B6883
:10325C00B3F1804F07D07B68194A934203D07B6847
:10326C00184A934208D1FB6823F44073FB603B6817
:10327C00DB68FA681343FB60FB6823F080023B6851
:10328C005B691343FB607B68FA681A603B689A6859
:10329C007B68DA623B681A687B689A627B68074ACB
:1032AC00934203D13B681A697B681A637B680122DD
:1032BC005A6100BF1437BD4680BC7047002C0140DA
:1032CC00000400400008004080B487B000AF786074
:1032DC0039607B681B6A7B617B681B6A23F0010287
:1032EC007B681A627B685B683B617B689B69FB60EF
:1032FC00FB6823F07003FB60FB6823F00303FB60A7
:10330C003B681B68FA681343FB607B6923F002037C
:10331C007B613B689B687A6913437B617B681C4AC1
:10332C0093420CD17B6923F008037B613B68DB681B
:10333C007A6913437B617B6923F004037B617B68AF
:10334C00134A934211D13B6923F480733B613B696F
:10335C0023F400733B613B685B693A6913433B613F
:10336C003B689B693A6913433B617B683A695A60D5
:10337C007B68FA689A613B685A687B685A637B6819
:10338C007A691A6200BF1C37BD4680BC704700BF0B
:10339C00002C014080B487B000AF786039607B6846
:1033AC001B6A7B617B681B6A23F010027B681A62C4
:1033BC007B685B683B617B689B69FB60FB6823F403
:1033CC00E043FB60FB6823F44073FB603B681B68C5
:1033DC001B02FA681343FB607B6923F020037B61BB
:1033EC003B689B681B017A6913437B617B681D4AB0
:1033FC0093420DD17B6923F080037B613B68DB68D2
:10340C001B017A6913437B617B6923F040037B6169
:10341C007B68144A934213D13B6923F480633B616C
:10342C003B6923F400633B613B685B699B003A6931
:10343C0013433B613B689B699B003A6913433B61B7
:10344C007B683A695A607B68FA689A613B685A688B
:10345C007B689A637B687A691A6200BF1C37BD4629
:10346C0080BC7047002C014080B487B000AF7860FE
:10347C0039607B681B6A7B617B681B6A23F48072F2
:10348C007B681A627B685B683B617B68DB69FB600D
:10349C00FB6823F07003FB60FB6823F00303FB6005
:1034AC003B681B68FA681343FB607B6923F4007369
:1034BC007B613B689B681B027A6913437B617B6869
:1034CC001D4A93420DD17B6923F400637B613B68F9
:1034DC00DB681B027A6913437B617B6923F480638D
:1034EC007B617B68144A934213D13B6923F480536C
:1034FC003B613B6923F400533B613B685B691B01F7
:10350C003A6913433B613B689B691B013A6913435E
:10351C003B617B683A695A607B68FA68DA613B68A0
:10352C005A687B68DA637B687A691A6200BF1C3759
:10353C00BD4680BC704700BF002C014080B487B0F2
:10354C0000AF786039607B681B6A3B617B681B6AE3
:10355C0023F480527B681A627B685B687B617B68B2
:10356C00DB69FB60FB6823F4E043FB60FB6823F43E
:10357C004073FB603B681B681B02FA681343FB60DB
:10358C003B6923F400533B613B689B681B033A691E
:10359C0013433B617B680F4A934209D17B6923F447
:1035AC0080437B613B685B699B017A6913437B6158
:1035BC007B687A695A607B68FA68DA613B685A689A
:1035CC007B681A647B683A691A6200BF1C37BD4677
:1035DC0080BC7047002C014080B487B000AFF8600D
:1035EC00B9607A60FB681B6A7B61FB681B6A23F01D
:1035FC000102FB681A62FB689B693B613B6923F023
:10360C00F0033B617B681B013A6913433B617B69A7
:10361C0023F00A037B617A69BB6813437B61FB6807
:10362C003A699A61FB687A691A6200BF1C37BD4619
:10363C0080BC704780B487B000AFF860B9607A6026
:10364C00FB681B6A7B61FB681B6A23F01002FB683A
:10365C001A62FB689B693B613B6923F470433B61D5
:10366C007B681B033A6913433B617B6923F0A0031E
:10367C007B61BB681B017A6913437B61FB683A6908
:10368C009A61FB687A691A6200BF1C37BD4680BC20
:10369C00704780B485B000AF786039607B689B68F8
:1036AC00FB60FB6823F07003FB603A68FB68134314
:1036BC0043F00703FB607B68FA689A6000BF14371D
:1036CC00BD4680BC704780B487B000AFF860B9606D
:1036DC007A603B60FB689B687B617B6923F47F436A
:1036EC007B613B681A027B681A43BB6813437A6997
:1036FC0013437B61FB687A699A6000BF1C37BD4637
:10370C0080BC704780B487B000AFF860B9607A6055
:10371C00BB6803F01F03012202FA03F37B61FB6811
:10372C001A6A7B69DB431A40FB681A62FB681A6AE7
:10373C00BB6803F01F03796801FA03F31A43FB68B3
:10374C001A6200BF1C37BD4680BC704780B485B080
:10375C0000AF786039607B6893F83C30012B01D165
:10376C00022346E07B68012283F83C207B6802221E
:10377C0083F83D207B681B685B68FB607B681B687B
:10378C009B68BB60FB6823F07003FB603B681B68A5
:10379C00FA681343FB607B681B68FA685A607B68A5
:1037AC001B68164A93420ED07B681B68B3F1804F9E
:1037BC0009D07B681B68124A934204D07B681B6853
:1037CC00104A93420CD1BB6823F08003BB603B686A
:1037DC005B68BA681343BB607B681B68BA689A6005
:1037EC007B68012283F83D207B68002283F83C2013
:1037FC00002318461437BD4680BC7047002C01408E
:10380C00000400400008004080B483B000AF786032
:10381C0000BF0C37BD4680BC704780B483B000AF8E
:10382C00786000BF0C37BD4680BC704780B582B055
:10383C0000AF78607B68002B01D1012342E07B68EC
:10384C0093F84130DBB2002B06D17B68002283F861
:10385C0040207868FEF75AF87B68242283F84120D0
:10386C007B681B68DA687B681B6822F40052DA609C
:10387C00786800F01DF97B681B681A697B681B6807
:10388C0022F490421A617B681B685A697B681B683A
:10389C0022F02A025A617B681B68DA687B681B6815
:1038AC0042F40052DA607B6800225A647B68202262
:1038BC0083F841207B68202283F842207B68002219
:1038CC005A63002318460837BD4680BD80B58AB0C0
:1038DC0002AFF860B9603B601346FB8000237B614C
:1038EC00FB6893F84130DBB2202B6DD1BB68002B09
:1038FC0002D0FB88002B01D1012366E0FB6800227B
:10390C005A64FB68212283F84120FEF79FF9786105
:10391C00FB68FA889A84FB68FA88DA84FB689B68EF
:10392C00B3F5805F08D1FB681B69002B04D1002321
:10393C00FB61BB68BB6103E0BB68FB610023BB613F
:10394C002AE03B6800937B6900228021F86800F034
:10395C0040F80346002B01D0032336E0FB69002B13
:10396C000BD1BB691B881A46FB681B68C2F30802A3
:10397C005A60BB690233BB6107E0FB691A78FB68CC
:10398C001B685A60FB690133FB61FB68DB8C9BB2E3
:10399C00013B9AB2FB68DA84FB68DB8C9BB2002B90
:1039AC00CFD13B6800937B6900224021F86800F07E
:1039BC0010F80346002B01D0032306E0FB682022FD
:1039CC0083F84120002300E0022318462037BD462F
:1039DC0080BD80B590B000AFF860B9603B60134615
:1039EC00FB7150E0BB6CB3F1FF3F4CD0BB6C002BB8
:1039FC0007D0FEF72BF902463B68D31ABA6C9A42F1
:103A0C0041D2FB681B680C33BB62BB6A53E8003FB6
:103A1C007B627B6A23F4D073FB63FB681B680C33FB
:103A2C00FA6B7A633B63396B7A6B41E80023FB6278
:103A3C00FB6A002BE5D1FB681B6814337B617B6947
:103A4C0053E8003F3B613B6923F00103BB63FB6818
:103A5C001B681433BA6B3A62FB61F9693A6A41E844
:103A6C000023BB61BB69002BE5D1FB68202283F8E6
:103A7C004120FB68202283F84220FB68002283F857
:103A8C00402003230FE0FB681B681A68BB681340D7
:103A9C00BA689A420CBF01230023DBB21A46FB79A9
:103AAC009A429FD0002318464037BD4680BD000087
:103ABC0080B584B000AF78607B681B681B6923F409
:103ACC0040517B68DA687B681B680A431A617B6823
:103ADC009A687B681B691A437B685B691343BB60FC
:103AEC007B681B68DB6823F4B05323F00C037A6803
:103AFC001268B9680B43D3607B681B685B6923F45D
:103B0C0040717B689A697B681B680A435A617B68C1
:103B1C001B682C4A934203D1FEF742FFF86002E087
:103B2C00FEF72AFFF860FA6813469B0013449A00CC
:103B3C001A447B685B689B00B2FBF3F3224AA2FB3E
:103B4C0003235B091901FA6813469B0013449A007E
:103B5C001A447B685B689B00B2FBF3F21A4BA3FB25
:103B6C0002035B09642000FB03F3D31A1B013233FD
:103B7C00154AA2FB03235B0903F0F0031944FA680E
:103B8C0013469B0013449A001A447B685B689B00A5
:103B9C00B2FBF3F20C4BA3FB02035B09642000FBAA
:103BAC0003F3D31A1B013233074AA2FB03235B092D
:103BBC0003F00F027B681B680A449A6000BF103741
:103BCC00BD4680BD003801401F85EB51002310B568
:103BDC000446C0E90033C0E9043383608181436645
:103BEC00C2818361194608225C3000F0E5F9054B6F
:103BFC0024626362044BA362044BE362044B2363B1
:103C0C0010BD00BF153E0008373E00086F3E00088F
:103C1C00933E0008024A0349034800F069B800BF0C
:103C2C0084000020514900089000002041680C4B92
:103C3C0010B59942044601D000F084FEA168094BEE
:103C4C00994202D0204600F07DFEE168064B994275
:103C5C0004D02046BDE8104000F074BE10BD00BF7B
:103C6C0030030020980300200004002010B50B4BFB
:103C7C000B4C0C4A20461A6004210022FFF7A6FFC9
:103C8C0004F1680001220921FFF7A0FF04F1D00024
:103C9C000222BDE810401221FFF798BF68040020F3
:103CAC0030030020213C0008014800F0FDB900BFA2
:103CBC0071040020014800F0F8B900BF7104002025
:103CCC0010B50446FFF7F0FF236A1BB1BDE81040A6
:103CDC00FFF7F0BF044B2362044B1B68002BF5D19C
:103CEC00FFF7C4FFF2E700BF393C0008680400206E
:103CFC002DE9F8430746884614460026D4E9019579
:103D0C00B9F1010905D52468002CF7D13046BDE87E
:103D1C00F883AB89012B07D9B5F90E30013303D0E9
:103D2C0029463846C04706436835E9E70FB407B55E
:103D3C00064904AB086853F8042B8168019300F022
:103D4C00D1FA03B05DF804EB04B07047DC0000203E
:103D5C00036A70B505460E4684680BB9FFF7B0FFD1
:103D6C00636EDB0705D4A389980502D4A06D00F01F
:103D7C009BF9A389190713D523698BB1013EA3685D
:103D8C0016F8011F013BA360E9B9002B2EDA22467D
:103D9C000A21284600F07BF8013007D00A2507E0FD
:103DAC002146284600F0B0F80028E7D04FF0FF3548
:103DBC00636EDA0705D4A3899B0502D4A06D00F0CD
:103DCC0074F9284670BD002B04DAA2699A4206DC0D
:103DDC000A2904D023685A1C22601970CFE72246A6
:103DEC00284600F054F80130C9D1DFE70A252368D2
:103DFC005A1C22601D70DBE7024B01461868FFF766
:103E0C00A7BF00BFDC00002010B50C46B1F90E10A6
:103E1C0000F0FCF80028ABBF636DA3891B1823F4DA
:103E2C008053ACBF6365A38110BD2DE9F0411F46E3
:103E3C008B890546DB050C46164605D50223002268
:103E4C00B1F90E1000F0D0F8A389324623F4805358
:103E5C00A38128463B46B4F90E10BDE8F04100F0B2
:103E6C00E7B810B50C46B1F90E1000F0BDF8431CC4
:103E7C00A38915BF606523F4805343F48053A38159
:103E8C0018BFA38110BDB1F90E1000F09DB8F8B5A4
:103E9C000E461446054618B1036A0BB9FFF710FF1E
:103EAC00A369A360A3891A0725D523691BB32368CB
:103EBC002269F6B2981A63693746834204DC2146BC
:103ECC00284600F03FFDE0B9A368013BA3602368DE
:103EDC005A1C22601E706269431C9A4204D0A3894A
:103EEC00DB0706D50A2E04D12146284600F02AFD10
:103EFC0038B93846F8BD2146284600F005F80028A8
:103F0C00D5D04FF0FF37F4E738B52A4B0546186883
:103F1C000C4618B1036A0BB9FFF7D2FEA389B4F9AA
:103F2C000C20180722D4D90607D409232B6042F0A1
:103F3C0040034FF0FF30A38134E0580712D5616B7A
:103F4C0041B104F14403994202D0284600F0AEF886
:103F5C0000236363A38923F02403A38100236360FC
:103F6C0023692360A38943F00803A38123694BB918
:103F7C00A38903F42073B3F5007F03D021462846B0
:103F8C0000F02DFDA089B4F90C2010F001030AD02B
:103F9C000023A36063695B42A361236943B910F0FA
:103FAC008000C4D138BD810758BF6369A360F4E7B2
:103FBC000020F7E7DC00002003460244934200D1C6
:103FCC00704703F8011BF9E738B50023054D04468B
:103FDC0008462B60FDF74FFD431C02D12B6803B143
:103FEC00236038BD6C04002038B5044608461146E1
:103FFC000022054D2A601A46FDF761FD431C02D1D3
:10400C002B6803B1236038BD6C04002038B504461E
:10401C00084611460022054D2A601A46FDF7F2FCAF
:10402C00431C02D12B6803B1236038BD6C04002003
:10403C0038B50446084611460022054D2A601A463A
:10404C00FDF7FDFC431C02D12B6803B1236038BD86
:10405C006C040020014B1868704700BFDC00002086
:10406C0070B500260C4D0D4C641BA410A64209D152
:10407C0000F032FD00260A4D0A4C641BA410A64227
:10408C0005D170BD55F8043B98470136EEE755F85D
:10409C00043B98470136F2E7F04B0008F04B000860
:1040AC00F04B0008F44B00087047704738B50546D4
:1040BC00002940D051F8043C0C1F002BB8BFE41869
:1040CC0000F0DCF81C4A136833B9636014602846AE
:1040DC00BDE8384000F0D8B8A34208D920682118B0
:1040EC008B4201BF19685B6809182160EDE71A461D
:1040FC005B680BB1A342FAD911685018A0420BD1DE
:10410C0020680144501883421160E0D118685B6844
:10411C00084410605360DAE702D90C232B60D6E711
:10412C00206821188B4201BF19685B68091821604F
:10413C0063605460CBE738BD7404002070B50E4E3C
:10414C000C463168054611B900F0A8FC30602146D8
:10415C00284600F0A3FC431C0AD0C41C24F0030422
:10416C00A04207D0211A284600F098FC013001D15A
:10417C004FF0FF34204670BD780400202DE9F84341
:10418C00CD1C25F0030508350C2D38BF0C25002D52
:10419C00074601DBA94205D90C2300263B603046BB
:1041AC00BDE8F883DFF8D08000F068F8D8F800306C
:1041BC001C465CBB29463846FFF7C0FF431C04462F
:1041CC0055D1D8F800402646002E45D1002C48D0B9
:1041DC0023683146384604EB030900F05FFC814547
:1041EC003FD1216838466D1A2946FFF7A7FF0130E9
:1041FC0037D023682B442360D8F80030002B38D0FC
:10420C005A68A2422BD100225A600FE02268521B3E
:10421C001FD40B2A17D96119A342256018BF596006
:10422C00636808BFC8F8001062514B60384604F14F
:10423C000B0600F029F826F00706231DF21AAED063
:10424C009B1BA350ABE7A3426268DDD1C8F80020EA
:10425C00ECE723466468ACE734467668B4E713466B
:10426C00CCE70C2338463B6000F00EF897E725604E
:10427C00DCE75B60FFDE00BF740400200148FFF741
:10428C0013BF00BF700400200148FFF70EBF00BF32
:10429C0070040020936810B4013B002B936007DA84
:1042AC009469A34201DB0A2902D110BCFFF7EFBDD0
:1042BC001368581C10601970084610BC7047F8B58C
:1042CC0006460F461446D518AC4201D1002007E033
:1042DC003A46304614F8011BFFF7DCFF431CF3D1C0
:1042EC00F8BD00002DE9F04F0D46144698460646E1
:1042FC009DB018B1036A0BB9FFF7E2FC6B6ED907DE
:10430C0005D4AB899A0502D4A86DFFF7CDFEAB8915
:10431C001B0701D52B699BB929463046FFF7F4FDE5
:10432C0070B16B6EDC0704D54FF0FF301DB0BDE8EB
:10433C00F08FAB899805F7D4A86DFFF7B6FEF3E7BD
:10434C000023099320238DF8293030234FF00109E5
:10435C00CDF80C80DFF8AC818DF82A3023469A46D4
:10436C0013F8012B0AB1252AF9D1BAEB040B0BD0A7
:10437C005B46224629463046FFF7A1FF013000F08C
:10438C00A980099A5A4409929AF80030002B00F03F
:10439C00A18000234FF0FF32CDE905230AF1010A79
:1043AC00049307938DF853301A935446052214F84E
:1043BC00011B544800F082FB049AD8B9D10644BFC3
:1043CC0020238DF85330130744BF2B238DF8533023
:1043DC009AF800302A2B15D0544600204FF00A0CC6
:1043EC00079A214611F8013B303B092B4DD9B0B14E
:1043FC00079214E0A0EB080309FA03F31343A24657
:10440C000493D2E7039B191D1B680391002BBBBFC0
:10441C005B4242F0020207930793B8BF04922378E1
:10442C002E2B0CD163782A2B34D1039B02341A1D0A
:10443C001B680392002BB8BF4FF0FF330593DFF8D6
:10444C00C8A003225046217800F038FB38B1402236
:10445C00049BA0EB0A00824013430134049314F82C
:10446C00011B062229488DF8281000F027FB002894
:10447C003FD0274B1BBB039B073323F007030833A9
:10448C000393099B3B44099368E70C4601200CFB02
:10449C000232A6E700234FF00A0C194601340593AB
:1044AC00204610F8012B303A092A03D9002BC6D02C
:1044BC000591C4E7044601230CFB0121F0E703AB93
:1044CC0000932A463046134B04A9AFF300800746ED
:1044DC00781CD6D16B6ED90705D4AB899A0502D45A
:1044EC00A86DFFF7E2FDAB895B063FF51DAF0998A0
:1044FC001CE703AB00932A463046064B04A900F098
:10450C007DF8E4E7BA4B0008C04B0008C44B000828
:10451C0000000000CB4200082DE9F04716469946F2
:10452C008A680B6907469342B8BF1346336091F80B
:10453C0043200C46DDF820800AB101333360236838
:10454C00990642BF336802333360256815F00605BF
:10455C0006D104F1190AE36832689B1AAB422BDCD2
:10456C0094F84320131E226818BF0123920630D4FE
:10457C004946384604F14302C047013023D0236832
:10458C00226903F00603042B14BF002533684FF097
:10459C00000608BFE56804F11A0408BFED1A54F8C8
:1045AC00123C08BF25EAE5759342C4BF9B1AED186F
:1045BC00B5421AD1002008E001235246494638463C
:1045CC00C047013003D14FF0FF30BDE8F087013513
:1045DC00C1E73020E11881F843005A1C94F84510CB
:1045EC002244023382F84310C2E701232246494693
:1045FC003846C0470130E6D00136D9E72DE9FF47F0
:10460C000F7E9146782F80460C469A460C9D01F100
:10461C00430207D8622F0AD8002F00F0D580582FFC
:10462C0000F0C18004F1420584F842703AE0A7F131
:10463C006303152BF6D801A151F823F0A14600080D
:10464C00B5460008314600083146000831460008DE
:10465C0031460008B54600083146000831460008CE
:10466C003146000831460008BB470008E146000807
:10467C00754700083146000831460008DD47000840
:10468C0031460008E1460008314600083146000872
:10469C007D4700082B681A1D1B682A6004F142052F
:1046AC0084F842300123A0E020682B68070603F150
:1046BC000401296001D51E6803E04606FBD5B3F959
:1046CC000060002E03DA2D23764284F843300A234F
:1046DC00594812E02B682068191D2960050601D580
:1046EC001E6802E04106FBD51E886F2F0CBF082305
:1046FC000A235148002184F843106568002DA8BF97
:10470C002168A560A4BF21F0040121600EB9002D21
:10471C004BD01546B6FBF3F103FB1167C75D05F8EB
:10472C00017D3746BB420E46F4D9082B0BD12368CA
:10473C00DE0708D5236961689942DEBF302305F88E
:10474C00013C05F1FF35521B22614B462146404688
:10475C00CDF800A003AAFFF7DFFE01304AD14FF0DD
:10476C00FF3004B0BDE8F087236843F020032360DA
:10477C007827324884F84570236829681F0651F859
:10478C00046B02D45F0648BFB6B2DF0748BF43F0E4
:10479C002003296048BF23601EB9236823F020033F
:1047AC0023601023A6E72448E4E71546BDE72B68F1
:1047BC002668181D6169286035061B6801D51960CB
:1047CC0002E07006FBD51980002315462361BCE777
:1047DC002B6800211A1D2A601D686268284600F0AB
:1047EC006DF908B1401B606063682361002384F895
:1047FC004330AAE72A46494640462369D047013050
:10480C00ADD023689B0713D4E068039B9842B8BFD4
:10481C001846A6E70123324649464046D0470130A8
:10482C009DD00135E36803995B1AAB42F2DCEBE7F0
:10483C00002504F11906F5E7CB4B0008DC4B00080A
:10484C008A89F8B5054610070C4657D44B68002BDF
:10485C0004DC0B6C002B01DC0020F8BDE66A002E9A
:10486C00FAD0002312F480522F68216A2B6032D0C8
:10487C00606DA3895A0705D56368C01A636B0BB1C9
:10488C00236CC01A00230246E66A2846216AB04708
:10489C00431CA38906D129681D292BD8284A0A4113
:1048AC00D60727D4002262602269D904226004D57D
:1048BC00421C01D12B6803B96065616B2F60002924
:1048CC00CAD004F14403994202D02846FFF7EEFB0C
:1048DC0000206063C1E701232846B047411CC8D1C2
:1048EC002B68002BC5D01D2B01D0162B01D12F60AE
:1048FC00B2E7A38943F04003A381AEE70F69002F11
:10490C00AAD0930718BF00230E6808BF4B69F61B8B
:10491C000F608B60002E9FDD33463A462846216A95
:10492C00D4F828C0E047002806DCA3894FF0FF30FC
:10493C0043F04003A38190E70744361AEAE700BF2F
:10494C00FEFFBFDF38B50B6905460C4613B90025D1
:10495C00284638BD18B1036A0BB9FFF7B1F9B4F9A1
:10496C000C30002BF3D0626ED00704D4990502D41E
:10497C00A06DFFF799FB28462146FFF761FF636E98
:10498C000546DA07E4D4A3899B05E1D4A06DFFF7B3
:10499C008CFBDDE770B50C46B1F90E1015460029FD
:1049AC001E4696B00CDAA389002113F0800F0CBFC1
:1049BC004FF480634023002031602B6016B070BD33
:1049CC006A4600F049F80028EDDB019901F47041CA
:1049DC00A1F50053594259414FF48063EBE78B89A1
:1049EC0073B59D0706460C4607D504F147032360B3
:1049FC0023610123636102B070BD6A4601ABFFF70E
:104A0C00C9FF009905463046FFF7B8FB48B9B4F921
:104A1C000C309A05EFD423F0030343F00203A38177
:104A2C00E3E7A389206043F08003A381009B20610E
:104A3C006361019B5BB13046B4F90E1000F01EF8B7
:104A4C0028B1A38923F0030343F00103A381A389B5
:104A5C001D43A581CFE7000038B50023064D044661
:104A6C00084611462B60FDF711F8431C02D12B6848
:104A7C0003B1236038BD00BF6C04002038B500239F
:104A8C00054D044608462B60FDF70FF8431C02D178
:104A9C002B6803B1236038BD6C04002038B50023AB
:104AAC00054D044608462B60FDF716F8431C02D151
:104ABC002B6803B1236038BD6C040020034610B58D
:104ACC00C9B202449342184601D1002003E0047895
:104ADC0001338C42F6D110BDF8B500BFF8BC08BC50
:104AEC009E467047F8B500BFF8BC08BC9E467047A0
:104AFC003D3D3D3D3D3D3D3D3D3D3D3D3D4D414EB5
:104B0C0055414C204D4F44453D3D3D3D3D3D3D3D8A
:104B1C003D3D3D3D3D0D000043757272656E742048
:104B2C0074696D653A2025640D0A00004375727234
:104B3C00656E742074696D653A2025640D0A000059
:104B4C0052656D61696E696E6720686F72697A6F04
:104B5C006E74616C207365636F6E643A2025640D0E
:104B6C000A00000052656D61696E696E672076659A
:104B7C0072746963616C207365636F6E643A20258F
:104B8C00640D0A0000000000000000000102030494
:104B9C0006070809000000000102030402030405D3
:104BAC00060708090A0B0C0D0E0F10100102232D1D
:104BBC00302B2000686C4C0065666745464700301A
:104BCC003132333435363738394142434445460067
:104BDC003031323334353637383961626364656667
:044BEC0000000000C5
:044BF0003101000887
:044BF4000D010008A7
:104BF80001000000010000000100000001000000A9
:104C08000100000001000000010000000100000098
:104C18000100000001000000010000000100000088
:104C28000100000001000000010000000100000078
:104C3800C8000000000801400008014000080140C9
:104C4800000C0140010000000200000010000000FC
:104C5800010000002800000001000000050000001D
:104C680003000000020000000024F400100000000F
:104C780001000000000000000300000030030020D5
:104C880000000000300300209803002000040020EA
:104C9800000000000000000000000000000000000C
:104CA80000000000000000000000000000000000FC
:104CB80000000000000000000000000000000000EC
:104CC800000000000000000000000000900000202C
:0400000508001B5D77
:00000001FF
